:100000000EC01DC01DC01BC01AC019C018C017C02B
:1000100016C015C014C013C012C0B1C0CDC0112489
:100020001FBECFE5D2E0DEBFCDBF20E0A0E6B0E04E
:1000300001C01D92AB3BB207E1F741D163C1E0CFF4
:100040001F920F920FB60F9211248F939F93F894E3
:1000500086B3887190E09595879595958795959548
:1000600087958093620080916300813079F028F059
:100070008230A9F08330E1F037C080916200823095
:10008000D9F080916200813051F520C080916200EA
:10009000882391F080916200833009F517C0809128
:1000A0006200833049F080916200882379F017C0A4
:1000B00080916200813031F4809160009091610004
:1000C000019609C080916200823049F480916000FD
:1000D00090916100019790936100809360008091FE
:1000E00062008093630078949F918F910F900FBE70
:1000F0000F901F901895809364001092A7001092A3
:10010000A800109265001092660087B3856087BBD7
:10011000C29AC09AB89888EA8DB980EF8EB90895CE
:10012000209166002F5F2F71309165002317E1F356
:10013000E22FF0E0EE0FFF1FE959FF4F918380831C
:100140002093660008959091A8008091A7009817C9
:10015000D1F38091A7008F5F8F708093A700E0910B
:10016000A700F0E0E755FF4F808108952091A80097
:100170009091A70081E0291301C080E008951F92AB
:100180000F920FB60F9211248F931092BA00109213
:10019000B900B898B29B02C0B09BFCCFB09902C026
:1001A00088EF01C088EA8DB980EF8EB98F910F90EA
:1001B0000FBE0F901F9018951F920F920FB60F92BF
:1001C00011248F939F93EF93FF938091B9009091A7
:1001D000BA008230910509F44DC028F40097C9F0A7
:1001E000019759F163C08430910509F44CC0F8F0CF
:1001F000059709F05BC08091A8008F5F8F70809396
:10020000A800E091A8008FB1F0E0E755FF4F808390
:1002100043C08FB1882331F08FB1869590916400EF
:10022000891308C0789B38C081E090E037C08FB157
:10023000882319F088EA8DB92DC0909166008091CD
:100240006500981799F1809165008F5F8F71809399
:100250006500E0916500F0E0EE0FFF1FE959FF4FE8
:1002600080818FB982E090E09093BA008093B900CA
:10027000B89A10C083E090E09093BA008093B900E0
:10028000B8981FB811C085E090E09093BA008093B1
:10029000B900B89880E709C084E090E09093BA0074
:1002A0008093B9001FB8B89A8EE78EB9FF91EF918D
:1002B0009F918F910F900FBE0F901F90189587B34D
:1002C00087BB87E018DF86B3887190E023E09595BF
:1002D00087952A95E1F7809363008BB780628BBF87
:1002E00085B3886185BB789441DF8823E9F32BDFF0
:1002F0008237D1F7F894809160009091610010DF0F
:08030000C19AF1CFF894FFCF80
:00000001FF
